{
  "contractName": "Campaign",
  "abi": [
    {
      "inputs": [
        {
          "internalType": "uint256",
          "name": "_id",
          "type": "uint256"
        },
        {
          "internalType": "string",
          "name": "_title",
          "type": "string"
        },
        {
          "internalType": "string",
          "name": "_description",
          "type": "string"
        },
        {
          "internalType": "string",
          "name": "_tokenName",
          "type": "string"
        },
        {
          "internalType": "string",
          "name": "_tokenSymbol",
          "type": "string"
        },
        {
          "internalType": "string",
          "name": "_CID",
          "type": "string"
        },
        {
          "internalType": "string",
          "name": "_baseUrl",
          "type": "string"
        },
        {
          "internalType": "uint256",
          "name": "_endsAt",
          "type": "uint256"
        },
        {
          "internalType": "uint256",
          "name": "_goal",
          "type": "uint256"
        },
        {
          "internalType": "address",
          "name": "_organizer",
          "type": "address"
        }
      ],
      "stateMutability": "nonpayable",
      "type": "constructor"
    },
    {
      "anonymous": false,
      "inputs": [
        {
          "indexed": false,
          "internalType": "uint256",
          "name": "amount",
          "type": "uint256"
        },
        {
          "indexed": false,
          "internalType": "address",
          "name": "donater",
          "type": "address"
        },
        {
          "indexed": false,
          "internalType": "contract NftReward",
          "name": "nftReward",
          "type": "address"
        }
      ],
      "name": "Donated",
      "type": "event"
    },
    {
      "anonymous": false,
      "inputs": [
        {
          "indexed": false,
          "internalType": "uint256",
          "name": "amount",
          "type": "uint256"
        },
        {
          "indexed": false,
          "internalType": "address",
          "name": "refunder",
          "type": "address"
        }
      ],
      "name": "RefundedAmount",
      "type": "event"
    },
    {
      "inputs": [],
      "name": "alreadyDonated",
      "outputs": [
        {
          "internalType": "uint256",
          "name": "",
          "type": "uint256"
        }
      ],
      "stateMutability": "view",
      "type": "function"
    },
    {
      "inputs": [],
      "name": "claimed",
      "outputs": [
        {
          "internalType": "bool",
          "name": "",
          "type": "bool"
        }
      ],
      "stateMutability": "view",
      "type": "function"
    },
    {
      "inputs": [],
      "name": "description",
      "outputs": [
        {
          "internalType": "string",
          "name": "",
          "type": "string"
        }
      ],
      "stateMutability": "view",
      "type": "function"
    },
    {
      "inputs": [
        {
          "internalType": "address",
          "name": "",
          "type": "address"
        }
      ],
      "name": "donations",
      "outputs": [
        {
          "internalType": "uint256",
          "name": "",
          "type": "uint256"
        }
      ],
      "stateMutability": "view",
      "type": "function"
    },
    {
      "inputs": [],
      "name": "endsAt",
      "outputs": [
        {
          "internalType": "uint256",
          "name": "",
          "type": "uint256"
        }
      ],
      "stateMutability": "view",
      "type": "function"
    },
    {
      "inputs": [],
      "name": "goal",
      "outputs": [
        {
          "internalType": "uint256",
          "name": "",
          "type": "uint256"
        }
      ],
      "stateMutability": "view",
      "type": "function"
    },
    {
      "inputs": [],
      "name": "id",
      "outputs": [
        {
          "internalType": "uint256",
          "name": "",
          "type": "uint256"
        }
      ],
      "stateMutability": "view",
      "type": "function"
    },
    {
      "inputs": [],
      "name": "organizer",
      "outputs": [
        {
          "internalType": "address",
          "name": "",
          "type": "address"
        }
      ],
      "stateMutability": "view",
      "type": "function"
    },
    {
      "inputs": [],
      "name": "title",
      "outputs": [
        {
          "internalType": "string",
          "name": "",
          "type": "string"
        }
      ],
      "stateMutability": "view",
      "type": "function"
    },
    {
      "inputs": [],
      "name": "donate",
      "outputs": [],
      "stateMutability": "payable",
      "type": "function"
    },
    {
      "inputs": [
        {
          "internalType": "uint256",
          "name": "_amount",
          "type": "uint256"
        }
      ],
      "name": "refundDonation",
      "outputs": [],
      "stateMutability": "nonpayable",
      "type": "function"
    },
    {
      "inputs": [],
      "name": "claim",
      "outputs": [],
      "stateMutability": "nonpayable",
      "type": "function"
    }
  ],
  "bytecode": "0x60806040523480156200001157600080fd5b5060405162004c9e38038062004c9e8339818101604052810190620000379190620004a1565b89600081905550886001908051906020019062000056929190620001a6565b5087600290805190602001906200006f929190620001a6565b508260038190555084600990805190602001906200008f929190620001a6565b508160048190555080600660006101000a81548173ffffffffffffffffffffffffffffffffffffffff021916908373ffffffffffffffffffffffffffffffffffffffff16021790555033600760006101000a81548173ffffffffffffffffffffffffffffffffffffffff021916908373ffffffffffffffffffffffffffffffffffffffff1602179055508686856040516200012a9062000237565b6200013893929190620006ae565b604051809103906000f08015801562000155573d6000803e3d6000fd5b50600860006101000a81548173ffffffffffffffffffffffffffffffffffffffff021916908373ffffffffffffffffffffffffffffffffffffffff1602179055505050505050505050505062000764565b828054620001b4906200072f565b90600052602060002090601f016020900481019282620001d8576000855562000224565b82601f10620001f357805160ff191683800117855562000224565b8280016001018555821562000224579182015b828111156200022357825182559160200191906001019062000206565b5b50905062000233919062000245565b5090565b6130d08062001bce83390190565b5b808211156200026057600081600090555060010162000246565b5090565b6000604051905090565b600080fd5b600080fd5b6000819050919050565b6200028d8162000278565b81146200029957600080fd5b50565b600081519050620002ad8162000282565b92915050565b600080fd5b600080fd5b6000601f19601f8301169050919050565b7f4e487b7100000000000000000000000000000000000000000000000000000000600052604160045260246000fd5b6200030882620002bd565b810181811067ffffffffffffffff821117156200032a5762000329620002ce565b5b80604052505050565b60006200033f62000264565b90506200034d8282620002fd565b919050565b600067ffffffffffffffff82111562000370576200036f620002ce565b5b6200037b82620002bd565b9050602081019050919050565b60005b83811015620003a85780820151818401526020810190506200038b565b83811115620003b8576000848401525b50505050565b6000620003d5620003cf8462000352565b62000333565b905082815260208101848484011115620003f457620003f3620002b8565b5b6200040184828562000388565b509392505050565b600082601f830112620004215762000420620002b3565b5b815162000433848260208601620003be565b91505092915050565b600073ffffffffffffffffffffffffffffffffffffffff82169050919050565b600062000469826200043c565b9050919050565b6200047b816200045c565b81146200048757600080fd5b50565b6000815190506200049b8162000470565b92915050565b6000806000806000806000806000806101408b8d031215620004c857620004c76200026e565b5b6000620004d88d828e016200029c565b9a505060208b015167ffffffffffffffff811115620004fc57620004fb62000273565b5b6200050a8d828e0162000409565b99505060408b015167ffffffffffffffff8111156200052e576200052d62000273565b5b6200053c8d828e0162000409565b98505060608b015167ffffffffffffffff81111562000560576200055f62000273565b5b6200056e8d828e0162000409565b97505060808b015167ffffffffffffffff81111562000592576200059162000273565b5b620005a08d828e0162000409565b96505060a08b015167ffffffffffffffff811115620005c457620005c362000273565b5b620005d28d828e0162000409565b95505060c08b015167ffffffffffffffff811115620005f657620005f562000273565b5b620006048d828e0162000409565b94505060e0620006178d828e016200029c565b9350506101006200062b8d828e016200029c565b9250506101206200063f8d828e016200048a565b9150509295989b9194979a5092959850565b600081519050919050565b600082825260208201905092915050565b60006200067a8262000651565b6200068681856200065c565b93506200069881856020860162000388565b620006a381620002bd565b840191505092915050565b60006060820190508181036000830152620006ca81866200066d565b90508181036020830152620006e081856200066d565b90508181036040830152620006f681846200066d565b9050949350505050565b7f4e487b7100000000000000000000000000000000000000000000000000000000600052602260045260246000fd5b600060028204905060018216806200074857607f821691505b6020821081036200075e576200075d62000700565b5b50919050565b61145a80620007746000396000f3fe6080604052600436106100a75760003560e01c80637284e416116100645780637284e41614610198578063af640d0f146101c3578063c4ecba10146101ee578063cc6cb19a14610219578063e834a83414610256578063ed88c68e14610281576100a7565b80630a09284a146100ac57806340193883146100d75780634a79d50c146101025780634e71d92d1461012d5780636120326514610144578063709cacc21461016f575b600080fd5b3480156100b857600080fd5b506100c161028b565b6040516100ce9190610bf6565b60405180910390f35b3480156100e357600080fd5b506100ec610291565b6040516100f99190610bf6565b60405180910390f35b34801561010e57600080fd5b50610117610297565b6040516101249190610caa565b60405180910390f35b34801561013957600080fd5b50610142610325565b005b34801561015057600080fd5b50610159610563565b6040516101669190610d0d565b60405180910390f35b34801561017b57600080fd5b5061019660048036038101906101919190610d59565b610589565b005b3480156101a457600080fd5b506101ad610742565b6040516101ba9190610caa565b60405180910390f35b3480156101cf57600080fd5b506101d86107d0565b6040516101e59190610bf6565b60405180910390f35b3480156101fa57600080fd5b506102036107d6565b6040516102109190610bf6565b60405180910390f35b34801561022557600080fd5b50610240600480360381019061023b9190610db2565b6107dc565b60405161024d9190610bf6565b60405180910390f35b34801561026257600080fd5b5061026b6107f4565b6040516102789190610dfa565b60405180910390f35b610289610807565b005b60035481565b60045481565b600180546102a490610e44565b80601f01602080910402602001604051908101604052809291908181526020018280546102d090610e44565b801561031d5780601f106102f25761010080835404028352916020019161031d565b820191906000526020600020905b81548152906001019060200180831161030057829003601f168201915b505050505081565b600660009054906101000a900473ffffffffffffffffffffffffffffffffffffffff1673ffffffffffffffffffffffffffffffffffffffff163373ffffffffffffffffffffffffffffffffffffffff16146103b5576040517f08c379a00000000000000000000000000000000000000000000000000000000081526004016103ac90610ec1565b60405180910390fd5b60045460055410156103fc576040517f08c379a00000000000000000000000000000000000000000000000000000000081526004016103f390610f2d565b60405180910390fd5b600a60009054906101000a900460ff161561044c576040517f08c379a000000000000000000000000000000000000000000000000000000000815260040161044390610f99565b60405180910390fd5b6001600a60006101000a81548160ff021916908315150217905550600660009054906101000a900473ffffffffffffffffffffffffffffffffffffffff1673ffffffffffffffffffffffffffffffffffffffff166108fc6005549081150290604051600060405180830381858888f193505050501580156104d1573d6000803e3d6000fd5b50600760009054906101000a900473ffffffffffffffffffffffffffffffffffffffff1673ffffffffffffffffffffffffffffffffffffffff1663263e0dfd6000546040518263ffffffff1660e01b815260040161052f9190610bf6565b600060405180830381600087803b15801561054957600080fd5b505af115801561055d573d6000803e3d6000fd5b50505050565b600660009054906101000a900473ffffffffffffffffffffffffffffffffffffffff1681565b6003544211156105ce576040517f08c379a00000000000000000000000000000000000000000000000000000000081526004016105c590611005565b60405180910390fd5b600b60003373ffffffffffffffffffffffffffffffffffffffff1673ffffffffffffffffffffffffffffffffffffffff16815260200190815260200160002054811115610650576040517f08c379a000000000000000000000000000000000000000000000000000000000815260040161064790611097565b60405180910390fd5b80600b60003373ffffffffffffffffffffffffffffffffffffffff1673ffffffffffffffffffffffffffffffffffffffff168152602001908152602001600020600082825461069f91906110e6565b9250508190555080600560008282546106b891906110e6565b925050819055503373ffffffffffffffffffffffffffffffffffffffff166108fc829081150290604051600060405180830381858888f19350505050158015610705573d6000803e3d6000fd5b507f9cb6aed18673df8fdf08d6794de6a6b6b2bf74a6b59c33b4a3b81e78781bf113813360405161073792919061111a565b60405180910390a150565b6002805461074f90610e44565b80601f016020809104026020016040519081016040528092919081815260200182805461077b90610e44565b80156107c85780601f1061079d576101008083540402835291602001916107c8565b820191906000526020600020905b8154815290600101906020018083116107ab57829003601f168201915b505050505081565b60005481565b60055481565b600b6020528060005260406000206000915090505481565b600a60009054906101000a900460ff1681565b60035442111561084c576040517f08c379a000000000000000000000000000000000000000000000000000000000815260040161084390611005565b60405180910390fd5b6000341161088f576040517f08c379a00000000000000000000000000000000000000000000000000000000081526004016108869061118f565b60405180910390fd5b34600560008282546108a191906111af565b9250508190555034600b60003373ffffffffffffffffffffffffffffffffffffffff1673ffffffffffffffffffffffffffffffffffffffff16815260200190815260200160002060008282546108f791906111af565b92505081905550600860009054906101000a900473ffffffffffffffffffffffffffffffffffffffff1673ffffffffffffffffffffffffffffffffffffffff1663e874c7c1336040518263ffffffff1660e01b81526004016109599190610d0d565b602060405180830381865afa158015610976573d6000803e3d6000fd5b505050506040513d601f19601f8201168201806040525081019061099a9190611231565b158015610a375750600860009054906101000a900473ffffffffffffffffffffffffffffffffffffffff1673ffffffffffffffffffffffffffffffffffffffff1663676dd5636040518163ffffffff1660e01b8152600401602060405180830381865afa158015610a0f573d6000803e3d6000fd5b505050506040513d601f19601f82011682018060405250810190610a339190611273565b3410155b15610b7e57600860009054906101000a900473ffffffffffffffffffffffffffffffffffffffff1673ffffffffffffffffffffffffffffffffffffffff1663d204c45e3360096040518363ffffffff1660e01b8152600401610a9a929190611335565b600060405180830381600087803b158015610ab457600080fd5b505af1158015610ac8573d6000803e3d6000fd5b50505050600760009054906101000a900473ffffffffffffffffffffffffffffffffffffffff1673ffffffffffffffffffffffffffffffffffffffff16636080c13c33600860009054906101000a900473ffffffffffffffffffffffffffffffffffffffff166040518363ffffffff1660e01b8152600401610b4b9291906113c4565b600060405180830381600087803b158015610b6557600080fd5b505af1158015610b79573d6000803e3d6000fd5b505050505b7fb227181d60ce0758d04146530f859fd91b8b3fb55353e3349150971499a39a153433600860009054906101000a900473ffffffffffffffffffffffffffffffffffffffff16604051610bd3939291906113ed565b60405180910390a1565b6000819050919050565b610bf081610bdd565b82525050565b6000602082019050610c0b6000830184610be7565b92915050565b600081519050919050565b600082825260208201905092915050565b60005b83811015610c4b578082015181840152602081019050610c30565b83811115610c5a576000848401525b50505050565b6000601f19601f8301169050919050565b6000610c7c82610c11565b610c868185610c1c565b9350610c96818560208601610c2d565b610c9f81610c60565b840191505092915050565b60006020820190508181036000830152610cc48184610c71565b905092915050565b600073ffffffffffffffffffffffffffffffffffffffff82169050919050565b6000610cf782610ccc565b9050919050565b610d0781610cec565b82525050565b6000602082019050610d226000830184610cfe565b92915050565b600080fd5b610d3681610bdd565b8114610d4157600080fd5b50565b600081359050610d5381610d2d565b92915050565b600060208284031215610d6f57610d6e610d28565b5b6000610d7d84828501610d44565b91505092915050565b610d8f81610cec565b8114610d9a57600080fd5b50565b600081359050610dac81610d86565b92915050565b600060208284031215610dc857610dc7610d28565b5b6000610dd684828501610d9d565b91505092915050565b60008115159050919050565b610df481610ddf565b82525050565b6000602082019050610e0f6000830184610deb565b92915050565b7f4e487b7100000000000000000000000000000000000000000000000000000000600052602260045260246000fd5b60006002820490506001821680610e5c57607f821691505b602082108103610e6f57610e6e610e15565b5b50919050565b7f596f7520617265206e6f7420746865206f7267616e697a65722e000000000000600082015250565b6000610eab601a83610c1c565b9150610eb682610e75565b602082019050919050565b60006020820190508181036000830152610eda81610e9e565b9050919050565b7f4e6f7420656e6f7567682066756e64732e000000000000000000000000000000600082015250565b6000610f17601183610c1c565b9150610f2282610ee1565b602082019050919050565b60006020820190508181036000830152610f4681610f0a565b9050919050565b7f43616d706169676e20616c72656164792068617320636c61696d65642e000000600082015250565b6000610f83601d83610c1c565b9150610f8e82610f4d565b602082019050919050565b60006020820190508181036000830152610fb281610f76565b9050919050565b7f43616d706169676e20616c726561647920686173206f7665722e000000000000600082015250565b6000610fef601a83610c1c565b9150610ffa82610fb9565b602082019050919050565b6000602082019050818103600083015261101e81610fe2565b9050919050565b7f796f752063616e7420726566756e64206d6f7265207468616e20796f7520676160008201527f76652e0000000000000000000000000000000000000000000000000000000000602082015250565b6000611081602383610c1c565b915061108c82611025565b604082019050919050565b600060208201905081810360008301526110b081611074565b9050919050565b7f4e487b7100000000000000000000000000000000000000000000000000000000600052601160045260246000fd5b60006110f182610bdd565b91506110fc83610bdd565b92508282101561110f5761110e6110b7565b5b828203905092915050565b600060408201905061112f6000830185610be7565b61113c6020830184610cfe565b9392505050565b7f596f752063616e277420646f6e61746520302e00000000000000000000000000600082015250565b6000611179601383610c1c565b915061118482611143565b602082019050919050565b600060208201905081810360008301526111a88161116c565b9050919050565b60006111ba82610bdd565b91506111c583610bdd565b9250827fffffffffffffffffffffffffffffffffffffffffffffffffffffffffffffffff038211156111fa576111f96110b7565b5b828201905092915050565b61120e81610ddf565b811461121957600080fd5b50565b60008151905061122b81611205565b92915050565b60006020828403121561124757611246610d28565b5b60006112558482850161121c565b91505092915050565b60008151905061126d81610d2d565b92915050565b60006020828403121561128957611288610d28565b5b60006112978482850161125e565b91505092915050565b60008190508160005260206000209050919050565b600081546112c281610e44565b6112cc8186610c1c565b945060018216600081146112e757600181146112f95761132c565b60ff198316865260208601935061132c565b611302856112a0565b60005b8381101561132457815481890152600182019150602081019050611305565b808801955050505b50505092915050565b600060408201905061134a6000830185610cfe565b818103602083015261135c81846112b5565b90509392505050565b6000819050919050565b600061138a61138561138084610ccc565b611365565b610ccc565b9050919050565b600061139c8261136f565b9050919050565b60006113ae82611391565b9050919050565b6113be816113a3565b82525050565b60006040820190506113d96000830185610cfe565b6113e660208301846113b5565b9392505050565b60006060820190506114026000830186610be7565b61140f6020830185610cfe565b61141c60408301846113b5565b94935050505056fea2646970667358221220a49e19298306e1b396f70663cac5ec72b24cd26fd44e2135dc90216de166e77d64736f6c634300080e003360806040523480156200001157600080fd5b50604051620030d0380380620030d08339818101604052810190620000379190620002dc565b82828160009080519060200190620000519291906200008f565b5080600190805190602001906200006a9291906200008f565b5050508060099080519060200190620000859291906200008f565b50505050620003f9565b8280546200009d90620003c4565b90600052602060002090601f016020900481019282620000c157600085556200010d565b82601f10620000dc57805160ff19168380011785556200010d565b828001600101855582156200010d579182015b828111156200010c578251825591602001919060010190620000ef565b5b5090506200011c919062000120565b5090565b5b808211156200013b57600081600090555060010162000121565b5090565b6000604051905090565b600080fd5b600080fd5b600080fd5b600080fd5b6000601f19601f8301169050919050565b7f4e487b7100000000000000000000000000000000000000000000000000000000600052604160045260246000fd5b620001a8826200015d565b810181811067ffffffffffffffff82111715620001ca57620001c96200016e565b5b80604052505050565b6000620001df6200013f565b9050620001ed82826200019d565b919050565b600067ffffffffffffffff82111562000210576200020f6200016e565b5b6200021b826200015d565b9050602081019050919050565b60005b83811015620002485780820151818401526020810190506200022b565b8381111562000258576000848401525b50505050565b6000620002756200026f84620001f2565b620001d3565b90508281526020810184848401111562000294576200029362000158565b5b620002a184828562000228565b509392505050565b600082601f830112620002c157620002c062000153565b5b8151620002d38482602086016200025e565b91505092915050565b600080600060608486031215620002f857620002f762000149565b5b600084015167ffffffffffffffff8111156200031957620003186200014e565b5b6200032786828701620002a9565b935050602084015167ffffffffffffffff8111156200034b576200034a6200014e565b5b6200035986828701620002a9565b925050604084015167ffffffffffffffff8111156200037d576200037c6200014e565b5b6200038b86828701620002a9565b9150509250925092565b7f4e487b7100000000000000000000000000000000000000000000000000000000600052602260045260246000fd5b60006002820490506001821680620003dd57607f821691505b602082108103620003f357620003f262000395565b5b50919050565b612cc780620004096000396000f3fe608060405234801561001057600080fd5b50600436106101165760003560e01c8063676dd563116100a2578063b88d4fde11610071578063b88d4fde146102f3578063c87b56dd1461030f578063d204c45e1461033f578063e874c7c11461035b578063e985e9c51461038b57610116565b8063676dd5631461026b57806370a082311461028957806395d89b41146102b9578063a22cb465146102d757610116565b80632247e84f116100e95780632247e84f146101b557806323b872dd146101e557806342842e0e146102015780635bcabf041461021d5780636352211e1461023b57610116565b806301ffc9a71461011b57806306fdde031461014b578063081812fc14610169578063095ea7b314610199575b600080fd5b61013560048036038101906101309190611c07565b6103bb565b6040516101429190611c4f565b60405180910390f35b61015361049d565b6040516101609190611d03565b60405180910390f35b610183600480360381019061017e9190611d5b565b61052f565b6040516101909190611dc9565b60405180910390f35b6101b360048036038101906101ae9190611e10565b610575565b005b6101cf60048036038101906101ca9190611e50565b61068c565b6040516101dc9190611c4f565b60405180910390f35b6101ff60048036038101906101fa9190611e7d565b6106ac565b005b61021b60048036038101906102169190611e7d565b61070c565b005b61022561072c565b6040516102329190611d03565b60405180910390f35b61025560048036038101906102509190611d5b565b6107ba565b6040516102629190611dc9565b60405180910390f35b61027361086b565b6040516102809190611edf565b60405180910390f35b6102a3600480360381019061029e9190611e50565b610876565b6040516102b09190611edf565b60405180910390f35b6102c161092d565b6040516102ce9190611d03565b60405180910390f35b6102f160048036038101906102ec9190611f26565b6109bf565b005b61030d6004803603810190610308919061209b565b6109d5565b005b61032960048036038101906103249190611d5b565b610a37565b6040516103369190611d03565b60405180910390f35b610359600480360381019061035491906121bf565b610a49565b005b61037560048036038101906103709190611e50565b610b5f565b6040516103829190611c4f565b60405180910390f35b6103a560048036038101906103a0919061221b565b610bb5565b6040516103b29190611c4f565b60405180910390f35b60007f80ac58cd000000000000000000000000000000000000000000000000000000007bffffffffffffffffffffffffffffffffffffffffffffffffffffffff1916827bffffffffffffffffffffffffffffffffffffffffffffffffffffffff1916148061048657507f5b5e139f000000000000000000000000000000000000000000000000000000007bffffffffffffffffffffffffffffffffffffffffffffffffffffffff1916827bffffffffffffffffffffffffffffffffffffffffffffffffffffffff1916145b80610496575061049582610c49565b5b9050919050565b6060600080546104ac9061228a565b80601f01602080910402602001604051908101604052809291908181526020018280546104d89061228a565b80156105255780601f106104fa57610100808354040283529160200191610525565b820191906000526020600020905b81548152906001019060200180831161050857829003601f168201915b5050505050905090565b600061053a82610cb3565b6004600083815260200190815260200160002060009054906101000a900473ffffffffffffffffffffffffffffffffffffffff169050919050565b6000610580826107ba565b90508073ffffffffffffffffffffffffffffffffffffffff168373ffffffffffffffffffffffffffffffffffffffff16036105f0576040517f08c379a00000000000000000000000000000000000000000000000000000000081526004016105e79061232d565b60405180910390fd5b8073ffffffffffffffffffffffffffffffffffffffff1661060f610cfe565b73ffffffffffffffffffffffffffffffffffffffff16148061063e575061063d81610638610cfe565b610bb5565b5b61067d576040517f08c379a0000000000000000000000000000000000000000000000000000000008152600401610674906123bf565b60405180910390fd5b6106878383610d06565b505050565b60086020528060005260406000206000915054906101000a900460ff1681565b6106bd6106b7610cfe565b82610dbf565b6106fc576040517f08c379a00000000000000000000000000000000000000000000000000000000081526004016106f390612451565b60405180910390fd5b610707838383610e54565b505050565b610727838383604051806020016040528060008152506109d5565b505050565b600980546107399061228a565b80601f01602080910402602001604051908101604052809291908181526020018280546107659061228a565b80156107b25780601f10610787576101008083540402835291602001916107b2565b820191906000526020600020905b81548152906001019060200180831161079557829003601f168201915b505050505081565b6000806002600084815260200190815260200160002060009054906101000a900473ffffffffffffffffffffffffffffffffffffffff169050600073ffffffffffffffffffffffffffffffffffffffff168173ffffffffffffffffffffffffffffffffffffffff1603610862576040517f08c379a0000000000000000000000000000000000000000000000000000000008152600401610859906124bd565b60405180910390fd5b80915050919050565b66038d7ea4c6800081565b60008073ffffffffffffffffffffffffffffffffffffffff168273ffffffffffffffffffffffffffffffffffffffff16036108e6576040517f08c379a00000000000000000000000000000000000000000000000000000000081526004016108dd9061254f565b60405180910390fd5b600360008373ffffffffffffffffffffffffffffffffffffffff1673ffffffffffffffffffffffffffffffffffffffff168152602001908152602001600020549050919050565b60606001805461093c9061228a565b80601f01602080910402602001604051908101604052809291908181526020018280546109689061228a565b80156109b55780601f1061098a576101008083540402835291602001916109b5565b820191906000526020600020905b81548152906001019060200180831161099857829003601f168201915b5050505050905090565b6109d16109ca610cfe565b83836110ba565b5050565b6109e66109e0610cfe565b83610dbf565b610a25576040517f08c379a0000000000000000000000000000000000000000000000000000000008152600401610a1c90612451565b60405180910390fd5b610a3184848484611226565b50505050565b6060610a4282611282565b9050919050565b600860008373ffffffffffffffffffffffffffffffffffffffff1673ffffffffffffffffffffffffffffffffffffffff16815260200190815260200160002060009054906101000a900460ff1615610ad6576040517f08c379a0000000000000000000000000000000000000000000000000000000008152600401610acd906125e1565b60405180910390fd5b6000610ae26007611394565b9050610aee60076113a2565b610af883826113b8565b610b0281836113d6565b6001600860008573ffffffffffffffffffffffffffffffffffffffff1673ffffffffffffffffffffffffffffffffffffffff16815260200190815260200160002060006101000a81548160ff021916908315150217905550505050565b6000600860008373ffffffffffffffffffffffffffffffffffffffff1673ffffffffffffffffffffffffffffffffffffffff16815260200190815260200160002060009054906101000a900460ff169050919050565b6000600560008473ffffffffffffffffffffffffffffffffffffffff1673ffffffffffffffffffffffffffffffffffffffff16815260200190815260200160002060008373ffffffffffffffffffffffffffffffffffffffff1673ffffffffffffffffffffffffffffffffffffffff16815260200190815260200160002060009054906101000a900460ff16905092915050565b60007f01ffc9a7000000000000000000000000000000000000000000000000000000007bffffffffffffffffffffffffffffffffffffffffffffffffffffffff1916827bffffffffffffffffffffffffffffffffffffffffffffffffffffffff1916149050919050565b610cbc8161144a565b610cfb576040517f08c379a0000000000000000000000000000000000000000000000000000000008152600401610cf2906124bd565b60405180910390fd5b50565b600033905090565b816004600083815260200190815260200160002060006101000a81548173ffffffffffffffffffffffffffffffffffffffff021916908373ffffffffffffffffffffffffffffffffffffffff160217905550808273ffffffffffffffffffffffffffffffffffffffff16610d79836107ba565b73ffffffffffffffffffffffffffffffffffffffff167f8c5be1e5ebec7d5bd14f71427d1e84f3dd0314c0f7b2291e5b200ac8c7c3b92560405160405180910390a45050565b600080610dcb836107ba565b90508073ffffffffffffffffffffffffffffffffffffffff168473ffffffffffffffffffffffffffffffffffffffff161480610e0d5750610e0c8185610bb5565b5b80610e4b57508373ffffffffffffffffffffffffffffffffffffffff16610e338461052f565b73ffffffffffffffffffffffffffffffffffffffff16145b91505092915050565b8273ffffffffffffffffffffffffffffffffffffffff16610e74826107ba565b73ffffffffffffffffffffffffffffffffffffffff1614610eca576040517f08c379a0000000000000000000000000000000000000000000000000000000008152600401610ec190612673565b60405180910390fd5b600073ffffffffffffffffffffffffffffffffffffffff168273ffffffffffffffffffffffffffffffffffffffff1603610f39576040517f08c379a0000000000000000000000000000000000000000000000000000000008152600401610f3090612705565b60405180910390fd5b610f448383836114b6565b610f4f600082610d06565b6001600360008573ffffffffffffffffffffffffffffffffffffffff1673ffffffffffffffffffffffffffffffffffffffff1681526020019081526020016000206000828254610f9f9190612754565b925050819055506001600360008473ffffffffffffffffffffffffffffffffffffffff1673ffffffffffffffffffffffffffffffffffffffff1681526020019081526020016000206000828254610ff69190612788565b92505081905550816002600083815260200190815260200160002060006101000a81548173ffffffffffffffffffffffffffffffffffffffff021916908373ffffffffffffffffffffffffffffffffffffffff160217905550808273ffffffffffffffffffffffffffffffffffffffff168473ffffffffffffffffffffffffffffffffffffffff167fddf252ad1be2c89b69c2b068fc378daa952ba7f163c4a11628f55a4df523b3ef60405160405180910390a46110b58383836114bb565b505050565b8173ffffffffffffffffffffffffffffffffffffffff168373ffffffffffffffffffffffffffffffffffffffff1603611128576040517f08c379a000000000000000000000000000000000000000000000000000000000815260040161111f9061282a565b60405180910390fd5b80600560008573ffffffffffffffffffffffffffffffffffffffff1673ffffffffffffffffffffffffffffffffffffffff16815260200190815260200160002060008473ffffffffffffffffffffffffffffffffffffffff1673ffffffffffffffffffffffffffffffffffffffff16815260200190815260200160002060006101000a81548160ff0219169083151502179055508173ffffffffffffffffffffffffffffffffffffffff168373ffffffffffffffffffffffffffffffffffffffff167f17307eab39ab6107e8899845ad3d59bd9653f200f220920489ca2b5937696c31836040516112199190611c4f565b60405180910390a3505050565b611231848484610e54565b61123d848484846114c0565b61127c576040517f08c379a0000000000000000000000000000000000000000000000000000000008152600401611273906128bc565b60405180910390fd5b50505050565b606061128d82610cb3565b60006006600084815260200190815260200160002080546112ad9061228a565b80601f01602080910402602001604051908101604052809291908181526020018280546112d99061228a565b80156113265780601f106112fb57610100808354040283529160200191611326565b820191906000526020600020905b81548152906001019060200180831161130957829003601f168201915b505050505090506000611337611647565b9050600081510361134c57819250505061138f565b600082511115611381578082604051602001611369929190612918565b6040516020818303038152906040529250505061138f565b61138a846116d9565b925050505b919050565b600081600001549050919050565b6001816000016000828254019250508190555050565b6113d2828260405180602001604052806000815250611741565b5050565b6113df8261144a565b61141e576040517f08c379a0000000000000000000000000000000000000000000000000000000008152600401611415906129ae565b60405180910390fd5b80600660008481526020019081526020016000209080519060200190611445929190611af8565b505050565b60008073ffffffffffffffffffffffffffffffffffffffff166002600084815260200190815260200160002060009054906101000a900473ffffffffffffffffffffffffffffffffffffffff1673ffffffffffffffffffffffffffffffffffffffff1614159050919050565b505050565b505050565b60006114e18473ffffffffffffffffffffffffffffffffffffffff1661179c565b1561163a578373ffffffffffffffffffffffffffffffffffffffff1663150b7a0261150a610cfe565b8786866040518563ffffffff1660e01b815260040161152c9493929190612a23565b6020604051808303816000875af192505050801561156857506040513d601f19601f820116820180604052508101906115659190612a84565b60015b6115ea573d8060008114611598576040519150601f19603f3d011682016040523d82523d6000602084013e61159d565b606091505b5060008151036115e2576040517f08c379a00000000000000000000000000000000000000000000000000000000081526004016115d9906128bc565b60405180910390fd5b805181602001fd5b63150b7a0260e01b7bffffffffffffffffffffffffffffffffffffffffffffffffffffffff1916817bffffffffffffffffffffffffffffffffffffffffffffffffffffffff19161491505061163f565b600190505b949350505050565b6060600980546116569061228a565b80601f01602080910402602001604051908101604052809291908181526020018280546116829061228a565b80156116cf5780601f106116a4576101008083540402835291602001916116cf565b820191906000526020600020905b8154815290600101906020018083116116b257829003601f168201915b5050505050905090565b60606116e482610cb3565b60006116ee611647565b9050600081511161170e5760405180602001604052806000815250611739565b80611718846117bf565b604051602001611729929190612918565b6040516020818303038152906040525b915050919050565b61174b838361191f565b61175860008484846114c0565b611797576040517f08c379a000000000000000000000000000000000000000000000000000000000815260040161178e906128bc565b60405180910390fd5b505050565b6000808273ffffffffffffffffffffffffffffffffffffffff163b119050919050565b606060008203611806576040518060400160405280600181526020017f3000000000000000000000000000000000000000000000000000000000000000815250905061191a565b600082905060005b6000821461183857808061182190612ab1565b915050600a826118319190612b28565b915061180e565b60008167ffffffffffffffff81111561185457611853611f70565b5b6040519080825280601f01601f1916602001820160405280156118865781602001600182028036833780820191505090505b5090505b600085146119135760018261189f9190612754565b9150600a856118ae9190612b59565b60306118ba9190612788565b60f81b8183815181106118d0576118cf612b8a565b5b60200101907effffffffffffffffffffffffffffffffffffffffffffffffffffffffffffff1916908160001a905350600a8561190c9190612b28565b945061188a565b8093505050505b919050565b600073ffffffffffffffffffffffffffffffffffffffff168273ffffffffffffffffffffffffffffffffffffffff160361198e576040517f08c379a000000000000000000000000000000000000000000000000000000000815260040161198590612c05565b60405180910390fd5b6119978161144a565b156119d7576040517f08c379a00000000000000000000000000000000000000000000000000000000081526004016119ce90612c71565b60405180910390fd5b6119e3600083836114b6565b6001600360008473ffffffffffffffffffffffffffffffffffffffff1673ffffffffffffffffffffffffffffffffffffffff1681526020019081526020016000206000828254611a339190612788565b92505081905550816002600083815260200190815260200160002060006101000a81548173ffffffffffffffffffffffffffffffffffffffff021916908373ffffffffffffffffffffffffffffffffffffffff160217905550808273ffffffffffffffffffffffffffffffffffffffff16600073ffffffffffffffffffffffffffffffffffffffff167fddf252ad1be2c89b69c2b068fc378daa952ba7f163c4a11628f55a4df523b3ef60405160405180910390a4611af4600083836114bb565b5050565b828054611b049061228a565b90600052602060002090601f016020900481019282611b265760008555611b6d565b82601f10611b3f57805160ff1916838001178555611b6d565b82800160010185558215611b6d579182015b82811115611b6c578251825591602001919060010190611b51565b5b509050611b7a9190611b7e565b5090565b5b80821115611b97576000816000905550600101611b7f565b5090565b6000604051905090565b600080fd5b600080fd5b60007fffffffff0000000000000000000000000000000000000000000000000000000082169050919050565b611be481611baf565b8114611bef57600080fd5b50565b600081359050611c0181611bdb565b92915050565b600060208284031215611c1d57611c1c611ba5565b5b6000611c2b84828501611bf2565b91505092915050565b60008115159050919050565b611c4981611c34565b82525050565b6000602082019050611c646000830184611c40565b92915050565b600081519050919050565b600082825260208201905092915050565b60005b83811015611ca4578082015181840152602081019050611c89565b83811115611cb3576000848401525b50505050565b6000601f19601f8301169050919050565b6000611cd582611c6a565b611cdf8185611c75565b9350611cef818560208601611c86565b611cf881611cb9565b840191505092915050565b60006020820190508181036000830152611d1d8184611cca565b905092915050565b6000819050919050565b611d3881611d25565b8114611d4357600080fd5b50565b600081359050611d5581611d2f565b92915050565b600060208284031215611d7157611d70611ba5565b5b6000611d7f84828501611d46565b91505092915050565b600073ffffffffffffffffffffffffffffffffffffffff82169050919050565b6000611db382611d88565b9050919050565b611dc381611da8565b82525050565b6000602082019050611dde6000830184611dba565b92915050565b611ded81611da8565b8114611df857600080fd5b50565b600081359050611e0a81611de4565b92915050565b60008060408385031215611e2757611e26611ba5565b5b6000611e3585828601611dfb565b9250506020611e4685828601611d46565b9150509250929050565b600060208284031215611e6657611e65611ba5565b5b6000611e7484828501611dfb565b91505092915050565b600080600060608486031215611e9657611e95611ba5565b5b6000611ea486828701611dfb565b9350506020611eb586828701611dfb565b9250506040611ec686828701611d46565b9150509250925092565b611ed981611d25565b82525050565b6000602082019050611ef46000830184611ed0565b92915050565b611f0381611c34565b8114611f0e57600080fd5b50565b600081359050611f2081611efa565b92915050565b60008060408385031215611f3d57611f3c611ba5565b5b6000611f4b85828601611dfb565b9250506020611f5c85828601611f11565b9150509250929050565b600080fd5b600080fd5b7f4e487b7100000000000000000000000000000000000000000000000000000000600052604160045260246000fd5b611fa882611cb9565b810181811067ffffffffffffffff82111715611fc757611fc6611f70565b5b80604052505050565b6000611fda611b9b565b9050611fe68282611f9f565b919050565b600067ffffffffffffffff82111561200657612005611f70565b5b61200f82611cb9565b9050602081019050919050565b82818337600083830152505050565b600061203e61203984611feb565b611fd0565b90508281526020810184848401111561205a57612059611f6b565b5b61206584828561201c565b509392505050565b600082601f83011261208257612081611f66565b5b813561209284826020860161202b565b91505092915050565b600080600080608085870312156120b5576120b4611ba5565b5b60006120c387828801611dfb565b94505060206120d487828801611dfb565b93505060406120e587828801611d46565b925050606085013567ffffffffffffffff81111561210657612105611baa565b5b6121128782880161206d565b91505092959194509250565b600067ffffffffffffffff82111561213957612138611f70565b5b61214282611cb9565b9050602081019050919050565b600061216261215d8461211e565b611fd0565b90508281526020810184848401111561217e5761217d611f6b565b5b61218984828561201c565b509392505050565b600082601f8301126121a6576121a5611f66565b5b81356121b684826020860161214f565b91505092915050565b600080604083850312156121d6576121d5611ba5565b5b60006121e485828601611dfb565b925050602083013567ffffffffffffffff81111561220557612204611baa565b5b61221185828601612191565b9150509250929050565b6000806040838503121561223257612231611ba5565b5b600061224085828601611dfb565b925050602061225185828601611dfb565b9150509250929050565b7f4e487b7100000000000000000000000000000000000000000000000000000000600052602260045260246000fd5b600060028204905060018216806122a257607f821691505b6020821081036122b5576122b461225b565b5b50919050565b7f4552433732313a20617070726f76616c20746f2063757272656e74206f776e6560008201527f7200000000000000000000000000000000000000000000000000000000000000602082015250565b6000612317602183611c75565b9150612322826122bb565b604082019050919050565b600060208201905081810360008301526123468161230a565b9050919050565b7f4552433732313a20617070726f76652063616c6c6572206973206e6f7420746f60008201527f6b656e206f776e6572206e6f7220617070726f76656420666f7220616c6c0000602082015250565b60006123a9603e83611c75565b91506123b48261234d565b604082019050919050565b600060208201905081810360008301526123d88161239c565b9050919050565b7f4552433732313a2063616c6c6572206973206e6f7420746f6b656e206f776e6560008201527f72206e6f7220617070726f766564000000000000000000000000000000000000602082015250565b600061243b602e83611c75565b9150612446826123df565b604082019050919050565b6000602082019050818103600083015261246a8161242e565b9050919050565b7f4552433732313a20696e76616c696420746f6b656e2049440000000000000000600082015250565b60006124a7601883611c75565b91506124b282612471565b602082019050919050565b600060208201905081810360008301526124d68161249a565b9050919050565b7f4552433732313a2061646472657373207a65726f206973206e6f74206120766160008201527f6c6964206f776e65720000000000000000000000000000000000000000000000602082015250565b6000612539602983611c75565b9150612544826124dd565b604082019050919050565b600060208201905081810360008301526125688161252c565b9050919050565b7f596f752063616e2774206f776e206d6f7265207468616e206f6e6520746f6b6560008201527f6e00000000000000000000000000000000000000000000000000000000000000602082015250565b60006125cb602183611c75565b91506125d68261256f565b604082019050919050565b600060208201905081810360008301526125fa816125be565b9050919050565b7f4552433732313a207472616e736665722066726f6d20696e636f72726563742060008201527f6f776e6572000000000000000000000000000000000000000000000000000000602082015250565b600061265d602583611c75565b915061266882612601565b604082019050919050565b6000602082019050818103600083015261268c81612650565b9050919050565b7f4552433732313a207472616e7366657220746f20746865207a65726f2061646460008201527f7265737300000000000000000000000000000000000000000000000000000000602082015250565b60006126ef602483611c75565b91506126fa82612693565b604082019050919050565b6000602082019050818103600083015261271e816126e2565b9050919050565b7f4e487b7100000000000000000000000000000000000000000000000000000000600052601160045260246000fd5b600061275f82611d25565b915061276a83611d25565b92508282101561277d5761277c612725565b5b828203905092915050565b600061279382611d25565b915061279e83611d25565b9250827fffffffffffffffffffffffffffffffffffffffffffffffffffffffffffffffff038211156127d3576127d2612725565b5b828201905092915050565b7f4552433732313a20617070726f766520746f2063616c6c657200000000000000600082015250565b6000612814601983611c75565b915061281f826127de565b602082019050919050565b6000602082019050818103600083015261284381612807565b9050919050565b7f4552433732313a207472616e7366657220746f206e6f6e20455243373231526560008201527f63656976657220696d706c656d656e7465720000000000000000000000000000602082015250565b60006128a6603283611c75565b91506128b18261284a565b604082019050919050565b600060208201905081810360008301526128d581612899565b9050919050565b600081905092915050565b60006128f282611c6a565b6128fc81856128dc565b935061290c818560208601611c86565b80840191505092915050565b600061292482856128e7565b915061293082846128e7565b91508190509392505050565b7f45524337323155524953746f726167653a2055524920736574206f66206e6f6e60008201527f6578697374656e7420746f6b656e000000000000000000000000000000000000602082015250565b6000612998602e83611c75565b91506129a38261293c565b604082019050919050565b600060208201905081810360008301526129c78161298b565b9050919050565b600081519050919050565b600082825260208201905092915050565b60006129f5826129ce565b6129ff81856129d9565b9350612a0f818560208601611c86565b612a1881611cb9565b840191505092915050565b6000608082019050612a386000830187611dba565b612a456020830186611dba565b612a526040830185611ed0565b8181036060830152612a6481846129ea565b905095945050505050565b600081519050612a7e81611bdb565b92915050565b600060208284031215612a9a57612a99611ba5565b5b6000612aa884828501612a6f565b91505092915050565b6000612abc82611d25565b91507fffffffffffffffffffffffffffffffffffffffffffffffffffffffffffffffff8203612aee57612aed612725565b5b600182019050919050565b7f4e487b7100000000000000000000000000000000000000000000000000000000600052601260045260246000fd5b6000612b3382611d25565b9150612b3e83611d25565b925082612b4e57612b4d612af9565b5b828204905092915050565b6000612b6482611d25565b9150612b6f83611d25565b925082612b7f57612b7e612af9565b5b828206905092915050565b7f4e487b7100000000000000000000000000000000000000000000000000000000600052603260045260246000fd5b7f4552433732313a206d696e7420746f20746865207a65726f2061646472657373600082015250565b6000612bef602083611c75565b9150612bfa82612bb9565b602082019050919050565b60006020820190508181036000830152612c1e81612be2565b9050919050565b7f4552433732313a20746f6b656e20616c7265616479206d696e74656400000000600082015250565b6000612c5b601c83611c75565b9150612c6682612c25565b602082019050919050565b60006020820190508181036000830152612c8a81612c4e565b905091905056fea2646970667358221220d5447905261855c36bd860d86fa4bcb7f44be4bd6bf7227e6242d7e4a4e1170e64736f6c634300080e0033",
  "immutableReferences": {},
  "source": "//SPDX-License-Identifier: MIT\npragma solidity 0.8.14;\n\nimport \"./CrowdfundingPlatform.sol\";\nimport \"./NftReward.sol\";\n\ncontract Campaign {\n    uint public id;\n    string public title;\n    string public description;\n    uint public endsAt;\n    uint public goal;\n    uint public alreadyDonated;\n    address public organizer;\n    CrowdfundingPlatform parentContract;\n    NftReward nftReward;\n    string nftMetaCID;\n    bool public claimed;\n    mapping(address => uint) public donations;\n\n    event Donated(uint amount, address donater, NftReward nftReward);\n    event RefundedAmount(uint amount, address refunder);\n\n    constructor(\n        uint _id,\n        string memory _title,\n        string memory _description,\n        string memory _tokenName,\n        string memory _tokenSymbol,\n        string memory _CID,\n        string memory _baseUrl,\n        uint _endsAt,\n        uint _goal,\n        address _organizer\n    ) {\n        id = _id;\n        title = _title;\n        description = _description;\n        endsAt = _endsAt;\n        nftMetaCID = _CID;\n        goal = _goal;\n        organizer = _organizer;\n        parentContract = CrowdfundingPlatform(msg.sender);\n        nftReward = new NftReward(_tokenName, _tokenSymbol, _baseUrl);\n    }\n\n    function donate() external payable {\n        require(block.timestamp <= endsAt, \"Campaign already has over.\");\n        require(msg.value > 0, \"You can't donate 0.\");\n\n        alreadyDonated += msg.value;\n        donations[msg.sender] += msg.value;\n\n        if (!nftReward.getIsUserHaveNft(msg.sender) && msg.value >= nftReward.NFT_PRICE()) {\n            nftReward.safeMint(msg.sender, nftMetaCID);\n            parentContract.setDonaterNft(msg.sender, nftReward);\n        }\n\n        emit Donated(msg.value, msg.sender, nftReward);\n    }\n\n    function refundDonation(uint _amount) external {\n        require(block.timestamp <= endsAt, \"Campaign already has over.\");\n        require(_amount <= donations[msg.sender], \"you cant refund more than you gave.\");\n\n        donations[msg.sender] -= _amount;\n        alreadyDonated -= _amount;\n\n        payable(msg.sender).transfer(_amount);\n\n        emit RefundedAmount(_amount, msg.sender);\n    }\n\n    function claim() external {\n        require(msg.sender == organizer, \"You are not the organizer.\");\n        require(alreadyDonated >= goal, \"Not enough funds.\");\n        require(!claimed, \"Campaign already has claimed.\");\n\n        claimed = true;\n\n        payable(organizer).transfer(alreadyDonated);\n\n        parentContract.onClaimed(id);\n    }\n}\n",
  "sourcePath": "/home/yurchenko-a/Desktop/skillup/web3/CrowdfundingPlatform/truffle/contracts/Campaign.sol",
  "compiler": {
    "name": "solc",
    "version": "0.8.14+commit.80d49f37.Emscripten.clang"
  },
  "schemaVersion": "3.4.10",
  "updatedAt": "2022-11-09T12:27:03.051Z",
  "devdoc": {
    "kind": "dev",
    "methods": {},
    "version": 1
  },
  "userdoc": {
    "kind": "user",
    "methods": {},
    "version": 1
  }
}