{
  "contractName": "NftReward",
  "abi": [
    {
      "inputs": [
        {
          "internalType": "string",
          "name": "_tokenName",
          "type": "string"
        },
        {
          "internalType": "string",
          "name": "_tokenSymbol",
          "type": "string"
        },
        {
          "internalType": "string",
          "name": "_baseUrl",
          "type": "string"
        }
      ],
      "stateMutability": "nonpayable",
      "type": "constructor"
    },
    {
      "anonymous": false,
      "inputs": [
        {
          "indexed": true,
          "internalType": "address",
          "name": "owner",
          "type": "address"
        },
        {
          "indexed": true,
          "internalType": "address",
          "name": "approved",
          "type": "address"
        },
        {
          "indexed": true,
          "internalType": "uint256",
          "name": "tokenId",
          "type": "uint256"
        }
      ],
      "name": "Approval",
      "type": "event"
    },
    {
      "anonymous": false,
      "inputs": [
        {
          "indexed": true,
          "internalType": "address",
          "name": "owner",
          "type": "address"
        },
        {
          "indexed": true,
          "internalType": "address",
          "name": "operator",
          "type": "address"
        },
        {
          "indexed": false,
          "internalType": "bool",
          "name": "approved",
          "type": "bool"
        }
      ],
      "name": "ApprovalForAll",
      "type": "event"
    },
    {
      "anonymous": false,
      "inputs": [
        {
          "indexed": true,
          "internalType": "address",
          "name": "from",
          "type": "address"
        },
        {
          "indexed": true,
          "internalType": "address",
          "name": "to",
          "type": "address"
        },
        {
          "indexed": true,
          "internalType": "uint256",
          "name": "tokenId",
          "type": "uint256"
        }
      ],
      "name": "Transfer",
      "type": "event"
    },
    {
      "inputs": [],
      "name": "NFT_PRICE",
      "outputs": [
        {
          "internalType": "uint256",
          "name": "",
          "type": "uint256"
        }
      ],
      "stateMutability": "view",
      "type": "function"
    },
    {
      "inputs": [
        {
          "internalType": "address",
          "name": "to",
          "type": "address"
        },
        {
          "internalType": "uint256",
          "name": "tokenId",
          "type": "uint256"
        }
      ],
      "name": "approve",
      "outputs": [],
      "stateMutability": "nonpayable",
      "type": "function"
    },
    {
      "inputs": [
        {
          "internalType": "address",
          "name": "owner",
          "type": "address"
        }
      ],
      "name": "balanceOf",
      "outputs": [
        {
          "internalType": "uint256",
          "name": "",
          "type": "uint256"
        }
      ],
      "stateMutability": "view",
      "type": "function"
    },
    {
      "inputs": [],
      "name": "baseUrl",
      "outputs": [
        {
          "internalType": "string",
          "name": "",
          "type": "string"
        }
      ],
      "stateMutability": "view",
      "type": "function"
    },
    {
      "inputs": [
        {
          "internalType": "uint256",
          "name": "tokenId",
          "type": "uint256"
        }
      ],
      "name": "getApproved",
      "outputs": [
        {
          "internalType": "address",
          "name": "",
          "type": "address"
        }
      ],
      "stateMutability": "view",
      "type": "function"
    },
    {
      "inputs": [
        {
          "internalType": "address",
          "name": "owner",
          "type": "address"
        },
        {
          "internalType": "address",
          "name": "operator",
          "type": "address"
        }
      ],
      "name": "isApprovedForAll",
      "outputs": [
        {
          "internalType": "bool",
          "name": "",
          "type": "bool"
        }
      ],
      "stateMutability": "view",
      "type": "function"
    },
    {
      "inputs": [
        {
          "internalType": "address",
          "name": "",
          "type": "address"
        }
      ],
      "name": "isUserHaveNft",
      "outputs": [
        {
          "internalType": "bool",
          "name": "",
          "type": "bool"
        }
      ],
      "stateMutability": "view",
      "type": "function"
    },
    {
      "inputs": [],
      "name": "name",
      "outputs": [
        {
          "internalType": "string",
          "name": "",
          "type": "string"
        }
      ],
      "stateMutability": "view",
      "type": "function"
    },
    {
      "inputs": [
        {
          "internalType": "uint256",
          "name": "tokenId",
          "type": "uint256"
        }
      ],
      "name": "ownerOf",
      "outputs": [
        {
          "internalType": "address",
          "name": "",
          "type": "address"
        }
      ],
      "stateMutability": "view",
      "type": "function"
    },
    {
      "inputs": [
        {
          "internalType": "address",
          "name": "from",
          "type": "address"
        },
        {
          "internalType": "address",
          "name": "to",
          "type": "address"
        },
        {
          "internalType": "uint256",
          "name": "tokenId",
          "type": "uint256"
        }
      ],
      "name": "safeTransferFrom",
      "outputs": [],
      "stateMutability": "nonpayable",
      "type": "function"
    },
    {
      "inputs": [
        {
          "internalType": "address",
          "name": "from",
          "type": "address"
        },
        {
          "internalType": "address",
          "name": "to",
          "type": "address"
        },
        {
          "internalType": "uint256",
          "name": "tokenId",
          "type": "uint256"
        },
        {
          "internalType": "bytes",
          "name": "data",
          "type": "bytes"
        }
      ],
      "name": "safeTransferFrom",
      "outputs": [],
      "stateMutability": "nonpayable",
      "type": "function"
    },
    {
      "inputs": [
        {
          "internalType": "address",
          "name": "operator",
          "type": "address"
        },
        {
          "internalType": "bool",
          "name": "approved",
          "type": "bool"
        }
      ],
      "name": "setApprovalForAll",
      "outputs": [],
      "stateMutability": "nonpayable",
      "type": "function"
    },
    {
      "inputs": [
        {
          "internalType": "bytes4",
          "name": "interfaceId",
          "type": "bytes4"
        }
      ],
      "name": "supportsInterface",
      "outputs": [
        {
          "internalType": "bool",
          "name": "",
          "type": "bool"
        }
      ],
      "stateMutability": "view",
      "type": "function"
    },
    {
      "inputs": [],
      "name": "symbol",
      "outputs": [
        {
          "internalType": "string",
          "name": "",
          "type": "string"
        }
      ],
      "stateMutability": "view",
      "type": "function"
    },
    {
      "inputs": [
        {
          "internalType": "address",
          "name": "from",
          "type": "address"
        },
        {
          "internalType": "address",
          "name": "to",
          "type": "address"
        },
        {
          "internalType": "uint256",
          "name": "tokenId",
          "type": "uint256"
        }
      ],
      "name": "transferFrom",
      "outputs": [],
      "stateMutability": "nonpayable",
      "type": "function"
    },
    {
      "inputs": [
        {
          "internalType": "address",
          "name": "to",
          "type": "address"
        },
        {
          "internalType": "string",
          "name": "uri",
          "type": "string"
        }
      ],
      "name": "safeMint",
      "outputs": [],
      "stateMutability": "nonpayable",
      "type": "function"
    },
    {
      "inputs": [
        {
          "internalType": "uint256",
          "name": "tokenId",
          "type": "uint256"
        }
      ],
      "name": "tokenURI",
      "outputs": [
        {
          "internalType": "string",
          "name": "",
          "type": "string"
        }
      ],
      "stateMutability": "view",
      "type": "function"
    },
    {
      "inputs": [
        {
          "internalType": "address",
          "name": "userAddress",
          "type": "address"
        }
      ],
      "name": "getIsUserHaveNft",
      "outputs": [
        {
          "internalType": "bool",
          "name": "",
          "type": "bool"
        }
      ],
      "stateMutability": "view",
      "type": "function"
    }
  ],
  "bytecode": "0x60806040523480156200001157600080fd5b50604051620030d0380380620030d08339818101604052810190620000379190620002dc565b82828160009080519060200190620000519291906200008f565b5080600190805190602001906200006a9291906200008f565b5050508060099080519060200190620000859291906200008f565b50505050620003f9565b8280546200009d90620003c4565b90600052602060002090601f016020900481019282620000c157600085556200010d565b82601f10620000dc57805160ff19168380011785556200010d565b828001600101855582156200010d579182015b828111156200010c578251825591602001919060010190620000ef565b5b5090506200011c919062000120565b5090565b5b808211156200013b57600081600090555060010162000121565b5090565b6000604051905090565b600080fd5b600080fd5b600080fd5b600080fd5b6000601f19601f8301169050919050565b7f4e487b7100000000000000000000000000000000000000000000000000000000600052604160045260246000fd5b620001a8826200015d565b810181811067ffffffffffffffff82111715620001ca57620001c96200016e565b5b80604052505050565b6000620001df6200013f565b9050620001ed82826200019d565b919050565b600067ffffffffffffffff82111562000210576200020f6200016e565b5b6200021b826200015d565b9050602081019050919050565b60005b83811015620002485780820151818401526020810190506200022b565b8381111562000258576000848401525b50505050565b6000620002756200026f84620001f2565b620001d3565b90508281526020810184848401111562000294576200029362000158565b5b620002a184828562000228565b509392505050565b600082601f830112620002c157620002c062000153565b5b8151620002d38482602086016200025e565b91505092915050565b600080600060608486031215620002f857620002f762000149565b5b600084015167ffffffffffffffff8111156200031957620003186200014e565b5b6200032786828701620002a9565b935050602084015167ffffffffffffffff8111156200034b576200034a6200014e565b5b6200035986828701620002a9565b925050604084015167ffffffffffffffff8111156200037d576200037c6200014e565b5b6200038b86828701620002a9565b9150509250925092565b7f4e487b7100000000000000000000000000000000000000000000000000000000600052602260045260246000fd5b60006002820490506001821680620003dd57607f821691505b602082108103620003f357620003f262000395565b5b50919050565b612cc780620004096000396000f3fe608060405234801561001057600080fd5b50600436106101165760003560e01c8063676dd563116100a2578063b88d4fde11610071578063b88d4fde146102f3578063c87b56dd1461030f578063d204c45e1461033f578063e874c7c11461035b578063e985e9c51461038b57610116565b8063676dd5631461026b57806370a082311461028957806395d89b41146102b9578063a22cb465146102d757610116565b80632247e84f116100e95780632247e84f146101b557806323b872dd146101e557806342842e0e146102015780635bcabf041461021d5780636352211e1461023b57610116565b806301ffc9a71461011b57806306fdde031461014b578063081812fc14610169578063095ea7b314610199575b600080fd5b61013560048036038101906101309190611c07565b6103bb565b6040516101429190611c4f565b60405180910390f35b61015361049d565b6040516101609190611d03565b60405180910390f35b610183600480360381019061017e9190611d5b565b61052f565b6040516101909190611dc9565b60405180910390f35b6101b360048036038101906101ae9190611e10565b610575565b005b6101cf60048036038101906101ca9190611e50565b61068c565b6040516101dc9190611c4f565b60405180910390f35b6101ff60048036038101906101fa9190611e7d565b6106ac565b005b61021b60048036038101906102169190611e7d565b61070c565b005b61022561072c565b6040516102329190611d03565b60405180910390f35b61025560048036038101906102509190611d5b565b6107ba565b6040516102629190611dc9565b60405180910390f35b61027361086b565b6040516102809190611edf565b60405180910390f35b6102a3600480360381019061029e9190611e50565b610876565b6040516102b09190611edf565b60405180910390f35b6102c161092d565b6040516102ce9190611d03565b60405180910390f35b6102f160048036038101906102ec9190611f26565b6109bf565b005b61030d6004803603810190610308919061209b565b6109d5565b005b61032960048036038101906103249190611d5b565b610a37565b6040516103369190611d03565b60405180910390f35b610359600480360381019061035491906121bf565b610a49565b005b61037560048036038101906103709190611e50565b610b5f565b6040516103829190611c4f565b60405180910390f35b6103a560048036038101906103a0919061221b565b610bb5565b6040516103b29190611c4f565b60405180910390f35b60007f80ac58cd000000000000000000000000000000000000000000000000000000007bffffffffffffffffffffffffffffffffffffffffffffffffffffffff1916827bffffffffffffffffffffffffffffffffffffffffffffffffffffffff1916148061048657507f5b5e139f000000000000000000000000000000000000000000000000000000007bffffffffffffffffffffffffffffffffffffffffffffffffffffffff1916827bffffffffffffffffffffffffffffffffffffffffffffffffffffffff1916145b80610496575061049582610c49565b5b9050919050565b6060600080546104ac9061228a565b80601f01602080910402602001604051908101604052809291908181526020018280546104d89061228a565b80156105255780601f106104fa57610100808354040283529160200191610525565b820191906000526020600020905b81548152906001019060200180831161050857829003601f168201915b5050505050905090565b600061053a82610cb3565b6004600083815260200190815260200160002060009054906101000a900473ffffffffffffffffffffffffffffffffffffffff169050919050565b6000610580826107ba565b90508073ffffffffffffffffffffffffffffffffffffffff168373ffffffffffffffffffffffffffffffffffffffff16036105f0576040517f08c379a00000000000000000000000000000000000000000000000000000000081526004016105e79061232d565b60405180910390fd5b8073ffffffffffffffffffffffffffffffffffffffff1661060f610cfe565b73ffffffffffffffffffffffffffffffffffffffff16148061063e575061063d81610638610cfe565b610bb5565b5b61067d576040517f08c379a0000000000000000000000000000000000000000000000000000000008152600401610674906123bf565b60405180910390fd5b6106878383610d06565b505050565b60086020528060005260406000206000915054906101000a900460ff1681565b6106bd6106b7610cfe565b82610dbf565b6106fc576040517f08c379a00000000000000000000000000000000000000000000000000000000081526004016106f390612451565b60405180910390fd5b610707838383610e54565b505050565b610727838383604051806020016040528060008152506109d5565b505050565b600980546107399061228a565b80601f01602080910402602001604051908101604052809291908181526020018280546107659061228a565b80156107b25780601f10610787576101008083540402835291602001916107b2565b820191906000526020600020905b81548152906001019060200180831161079557829003601f168201915b505050505081565b6000806002600084815260200190815260200160002060009054906101000a900473ffffffffffffffffffffffffffffffffffffffff169050600073ffffffffffffffffffffffffffffffffffffffff168173ffffffffffffffffffffffffffffffffffffffff1603610862576040517f08c379a0000000000000000000000000000000000000000000000000000000008152600401610859906124bd565b60405180910390fd5b80915050919050565b66038d7ea4c6800081565b60008073ffffffffffffffffffffffffffffffffffffffff168273ffffffffffffffffffffffffffffffffffffffff16036108e6576040517f08c379a00000000000000000000000000000000000000000000000000000000081526004016108dd9061254f565b60405180910390fd5b600360008373ffffffffffffffffffffffffffffffffffffffff1673ffffffffffffffffffffffffffffffffffffffff168152602001908152602001600020549050919050565b60606001805461093c9061228a565b80601f01602080910402602001604051908101604052809291908181526020018280546109689061228a565b80156109b55780601f1061098a576101008083540402835291602001916109b5565b820191906000526020600020905b81548152906001019060200180831161099857829003601f168201915b5050505050905090565b6109d16109ca610cfe565b83836110ba565b5050565b6109e66109e0610cfe565b83610dbf565b610a25576040517f08c379a0000000000000000000000000000000000000000000000000000000008152600401610a1c90612451565b60405180910390fd5b610a3184848484611226565b50505050565b6060610a4282611282565b9050919050565b600860008373ffffffffffffffffffffffffffffffffffffffff1673ffffffffffffffffffffffffffffffffffffffff16815260200190815260200160002060009054906101000a900460ff1615610ad6576040517f08c379a0000000000000000000000000000000000000000000000000000000008152600401610acd906125e1565b60405180910390fd5b6000610ae26007611394565b9050610aee60076113a2565b610af883826113b8565b610b0281836113d6565b6001600860008573ffffffffffffffffffffffffffffffffffffffff1673ffffffffffffffffffffffffffffffffffffffff16815260200190815260200160002060006101000a81548160ff021916908315150217905550505050565b6000600860008373ffffffffffffffffffffffffffffffffffffffff1673ffffffffffffffffffffffffffffffffffffffff16815260200190815260200160002060009054906101000a900460ff169050919050565b6000600560008473ffffffffffffffffffffffffffffffffffffffff1673ffffffffffffffffffffffffffffffffffffffff16815260200190815260200160002060008373ffffffffffffffffffffffffffffffffffffffff1673ffffffffffffffffffffffffffffffffffffffff16815260200190815260200160002060009054906101000a900460ff16905092915050565b60007f01ffc9a7000000000000000000000000000000000000000000000000000000007bffffffffffffffffffffffffffffffffffffffffffffffffffffffff1916827bffffffffffffffffffffffffffffffffffffffffffffffffffffffff1916149050919050565b610cbc8161144a565b610cfb576040517f08c379a0000000000000000000000000000000000000000000000000000000008152600401610cf2906124bd565b60405180910390fd5b50565b600033905090565b816004600083815260200190815260200160002060006101000a81548173ffffffffffffffffffffffffffffffffffffffff021916908373ffffffffffffffffffffffffffffffffffffffff160217905550808273ffffffffffffffffffffffffffffffffffffffff16610d79836107ba565b73ffffffffffffffffffffffffffffffffffffffff167f8c5be1e5ebec7d5bd14f71427d1e84f3dd0314c0f7b2291e5b200ac8c7c3b92560405160405180910390a45050565b600080610dcb836107ba565b90508073ffffffffffffffffffffffffffffffffffffffff168473ffffffffffffffffffffffffffffffffffffffff161480610e0d5750610e0c8185610bb5565b5b80610e4b57508373ffffffffffffffffffffffffffffffffffffffff16610e338461052f565b73ffffffffffffffffffffffffffffffffffffffff16145b91505092915050565b8273ffffffffffffffffffffffffffffffffffffffff16610e74826107ba565b73ffffffffffffffffffffffffffffffffffffffff1614610eca576040517f08c379a0000000000000000000000000000000000000000000000000000000008152600401610ec190612673565b60405180910390fd5b600073ffffffffffffffffffffffffffffffffffffffff168273ffffffffffffffffffffffffffffffffffffffff1603610f39576040517f08c379a0000000000000000000000000000000000000000000000000000000008152600401610f3090612705565b60405180910390fd5b610f448383836114b6565b610f4f600082610d06565b6001600360008573ffffffffffffffffffffffffffffffffffffffff1673ffffffffffffffffffffffffffffffffffffffff1681526020019081526020016000206000828254610f9f9190612754565b925050819055506001600360008473ffffffffffffffffffffffffffffffffffffffff1673ffffffffffffffffffffffffffffffffffffffff1681526020019081526020016000206000828254610ff69190612788565b92505081905550816002600083815260200190815260200160002060006101000a81548173ffffffffffffffffffffffffffffffffffffffff021916908373ffffffffffffffffffffffffffffffffffffffff160217905550808273ffffffffffffffffffffffffffffffffffffffff168473ffffffffffffffffffffffffffffffffffffffff167fddf252ad1be2c89b69c2b068fc378daa952ba7f163c4a11628f55a4df523b3ef60405160405180910390a46110b58383836114bb565b505050565b8173ffffffffffffffffffffffffffffffffffffffff168373ffffffffffffffffffffffffffffffffffffffff1603611128576040517f08c379a000000000000000000000000000000000000000000000000000000000815260040161111f9061282a565b60405180910390fd5b80600560008573ffffffffffffffffffffffffffffffffffffffff1673ffffffffffffffffffffffffffffffffffffffff16815260200190815260200160002060008473ffffffffffffffffffffffffffffffffffffffff1673ffffffffffffffffffffffffffffffffffffffff16815260200190815260200160002060006101000a81548160ff0219169083151502179055508173ffffffffffffffffffffffffffffffffffffffff168373ffffffffffffffffffffffffffffffffffffffff167f17307eab39ab6107e8899845ad3d59bd9653f200f220920489ca2b5937696c31836040516112199190611c4f565b60405180910390a3505050565b611231848484610e54565b61123d848484846114c0565b61127c576040517f08c379a0000000000000000000000000000000000000000000000000000000008152600401611273906128bc565b60405180910390fd5b50505050565b606061128d82610cb3565b60006006600084815260200190815260200160002080546112ad9061228a565b80601f01602080910402602001604051908101604052809291908181526020018280546112d99061228a565b80156113265780601f106112fb57610100808354040283529160200191611326565b820191906000526020600020905b81548152906001019060200180831161130957829003601f168201915b505050505090506000611337611647565b9050600081510361134c57819250505061138f565b600082511115611381578082604051602001611369929190612918565b6040516020818303038152906040529250505061138f565b61138a846116d9565b925050505b919050565b600081600001549050919050565b6001816000016000828254019250508190555050565b6113d2828260405180602001604052806000815250611741565b5050565b6113df8261144a565b61141e576040517f08c379a0000000000000000000000000000000000000000000000000000000008152600401611415906129ae565b60405180910390fd5b80600660008481526020019081526020016000209080519060200190611445929190611af8565b505050565b60008073ffffffffffffffffffffffffffffffffffffffff166002600084815260200190815260200160002060009054906101000a900473ffffffffffffffffffffffffffffffffffffffff1673ffffffffffffffffffffffffffffffffffffffff1614159050919050565b505050565b505050565b60006114e18473ffffffffffffffffffffffffffffffffffffffff1661179c565b1561163a578373ffffffffffffffffffffffffffffffffffffffff1663150b7a0261150a610cfe565b8786866040518563ffffffff1660e01b815260040161152c9493929190612a23565b6020604051808303816000875af192505050801561156857506040513d601f19601f820116820180604052508101906115659190612a84565b60015b6115ea573d8060008114611598576040519150601f19603f3d011682016040523d82523d6000602084013e61159d565b606091505b5060008151036115e2576040517f08c379a00000000000000000000000000000000000000000000000000000000081526004016115d9906128bc565b60405180910390fd5b805181602001fd5b63150b7a0260e01b7bffffffffffffffffffffffffffffffffffffffffffffffffffffffff1916817bffffffffffffffffffffffffffffffffffffffffffffffffffffffff19161491505061163f565b600190505b949350505050565b6060600980546116569061228a565b80601f01602080910402602001604051908101604052809291908181526020018280546116829061228a565b80156116cf5780601f106116a4576101008083540402835291602001916116cf565b820191906000526020600020905b8154815290600101906020018083116116b257829003601f168201915b5050505050905090565b60606116e482610cb3565b60006116ee611647565b9050600081511161170e5760405180602001604052806000815250611739565b80611718846117bf565b604051602001611729929190612918565b6040516020818303038152906040525b915050919050565b61174b838361191f565b61175860008484846114c0565b611797576040517f08c379a000000000000000000000000000000000000000000000000000000000815260040161178e906128bc565b60405180910390fd5b505050565b6000808273ffffffffffffffffffffffffffffffffffffffff163b119050919050565b606060008203611806576040518060400160405280600181526020017f3000000000000000000000000000000000000000000000000000000000000000815250905061191a565b600082905060005b6000821461183857808061182190612ab1565b915050600a826118319190612b28565b915061180e565b60008167ffffffffffffffff81111561185457611853611f70565b5b6040519080825280601f01601f1916602001820160405280156118865781602001600182028036833780820191505090505b5090505b600085146119135760018261189f9190612754565b9150600a856118ae9190612b59565b60306118ba9190612788565b60f81b8183815181106118d0576118cf612b8a565b5b60200101907effffffffffffffffffffffffffffffffffffffffffffffffffffffffffffff1916908160001a905350600a8561190c9190612b28565b945061188a565b8093505050505b919050565b600073ffffffffffffffffffffffffffffffffffffffff168273ffffffffffffffffffffffffffffffffffffffff160361198e576040517f08c379a000000000000000000000000000000000000000000000000000000000815260040161198590612c05565b60405180910390fd5b6119978161144a565b156119d7576040517f08c379a00000000000000000000000000000000000000000000000000000000081526004016119ce90612c71565b60405180910390fd5b6119e3600083836114b6565b6001600360008473ffffffffffffffffffffffffffffffffffffffff1673ffffffffffffffffffffffffffffffffffffffff1681526020019081526020016000206000828254611a339190612788565b92505081905550816002600083815260200190815260200160002060006101000a81548173ffffffffffffffffffffffffffffffffffffffff021916908373ffffffffffffffffffffffffffffffffffffffff160217905550808273ffffffffffffffffffffffffffffffffffffffff16600073ffffffffffffffffffffffffffffffffffffffff167fddf252ad1be2c89b69c2b068fc378daa952ba7f163c4a11628f55a4df523b3ef60405160405180910390a4611af4600083836114bb565b5050565b828054611b049061228a565b90600052602060002090601f016020900481019282611b265760008555611b6d565b82601f10611b3f57805160ff1916838001178555611b6d565b82800160010185558215611b6d579182015b82811115611b6c578251825591602001919060010190611b51565b5b509050611b7a9190611b7e565b5090565b5b80821115611b97576000816000905550600101611b7f565b5090565b6000604051905090565b600080fd5b600080fd5b60007fffffffff0000000000000000000000000000000000000000000000000000000082169050919050565b611be481611baf565b8114611bef57600080fd5b50565b600081359050611c0181611bdb565b92915050565b600060208284031215611c1d57611c1c611ba5565b5b6000611c2b84828501611bf2565b91505092915050565b60008115159050919050565b611c4981611c34565b82525050565b6000602082019050611c646000830184611c40565b92915050565b600081519050919050565b600082825260208201905092915050565b60005b83811015611ca4578082015181840152602081019050611c89565b83811115611cb3576000848401525b50505050565b6000601f19601f8301169050919050565b6000611cd582611c6a565b611cdf8185611c75565b9350611cef818560208601611c86565b611cf881611cb9565b840191505092915050565b60006020820190508181036000830152611d1d8184611cca565b905092915050565b6000819050919050565b611d3881611d25565b8114611d4357600080fd5b50565b600081359050611d5581611d2f565b92915050565b600060208284031215611d7157611d70611ba5565b5b6000611d7f84828501611d46565b91505092915050565b600073ffffffffffffffffffffffffffffffffffffffff82169050919050565b6000611db382611d88565b9050919050565b611dc381611da8565b82525050565b6000602082019050611dde6000830184611dba565b92915050565b611ded81611da8565b8114611df857600080fd5b50565b600081359050611e0a81611de4565b92915050565b60008060408385031215611e2757611e26611ba5565b5b6000611e3585828601611dfb565b9250506020611e4685828601611d46565b9150509250929050565b600060208284031215611e6657611e65611ba5565b5b6000611e7484828501611dfb565b91505092915050565b600080600060608486031215611e9657611e95611ba5565b5b6000611ea486828701611dfb565b9350506020611eb586828701611dfb565b9250506040611ec686828701611d46565b9150509250925092565b611ed981611d25565b82525050565b6000602082019050611ef46000830184611ed0565b92915050565b611f0381611c34565b8114611f0e57600080fd5b50565b600081359050611f2081611efa565b92915050565b60008060408385031215611f3d57611f3c611ba5565b5b6000611f4b85828601611dfb565b9250506020611f5c85828601611f11565b9150509250929050565b600080fd5b600080fd5b7f4e487b7100000000000000000000000000000000000000000000000000000000600052604160045260246000fd5b611fa882611cb9565b810181811067ffffffffffffffff82111715611fc757611fc6611f70565b5b80604052505050565b6000611fda611b9b565b9050611fe68282611f9f565b919050565b600067ffffffffffffffff82111561200657612005611f70565b5b61200f82611cb9565b9050602081019050919050565b82818337600083830152505050565b600061203e61203984611feb565b611fd0565b90508281526020810184848401111561205a57612059611f6b565b5b61206584828561201c565b509392505050565b600082601f83011261208257612081611f66565b5b813561209284826020860161202b565b91505092915050565b600080600080608085870312156120b5576120b4611ba5565b5b60006120c387828801611dfb565b94505060206120d487828801611dfb565b93505060406120e587828801611d46565b925050606085013567ffffffffffffffff81111561210657612105611baa565b5b6121128782880161206d565b91505092959194509250565b600067ffffffffffffffff82111561213957612138611f70565b5b61214282611cb9565b9050602081019050919050565b600061216261215d8461211e565b611fd0565b90508281526020810184848401111561217e5761217d611f6b565b5b61218984828561201c565b509392505050565b600082601f8301126121a6576121a5611f66565b5b81356121b684826020860161214f565b91505092915050565b600080604083850312156121d6576121d5611ba5565b5b60006121e485828601611dfb565b925050602083013567ffffffffffffffff81111561220557612204611baa565b5b61221185828601612191565b9150509250929050565b6000806040838503121561223257612231611ba5565b5b600061224085828601611dfb565b925050602061225185828601611dfb565b9150509250929050565b7f4e487b7100000000000000000000000000000000000000000000000000000000600052602260045260246000fd5b600060028204905060018216806122a257607f821691505b6020821081036122b5576122b461225b565b5b50919050565b7f4552433732313a20617070726f76616c20746f2063757272656e74206f776e6560008201527f7200000000000000000000000000000000000000000000000000000000000000602082015250565b6000612317602183611c75565b9150612322826122bb565b604082019050919050565b600060208201905081810360008301526123468161230a565b9050919050565b7f4552433732313a20617070726f76652063616c6c6572206973206e6f7420746f60008201527f6b656e206f776e6572206e6f7220617070726f76656420666f7220616c6c0000602082015250565b60006123a9603e83611c75565b91506123b48261234d565b604082019050919050565b600060208201905081810360008301526123d88161239c565b9050919050565b7f4552433732313a2063616c6c6572206973206e6f7420746f6b656e206f776e6560008201527f72206e6f7220617070726f766564000000000000000000000000000000000000602082015250565b600061243b602e83611c75565b9150612446826123df565b604082019050919050565b6000602082019050818103600083015261246a8161242e565b9050919050565b7f4552433732313a20696e76616c696420746f6b656e2049440000000000000000600082015250565b60006124a7601883611c75565b91506124b282612471565b602082019050919050565b600060208201905081810360008301526124d68161249a565b9050919050565b7f4552433732313a2061646472657373207a65726f206973206e6f74206120766160008201527f6c6964206f776e65720000000000000000000000000000000000000000000000602082015250565b6000612539602983611c75565b9150612544826124dd565b604082019050919050565b600060208201905081810360008301526125688161252c565b9050919050565b7f596f752063616e2774206f776e206d6f7265207468616e206f6e6520746f6b6560008201527f6e00000000000000000000000000000000000000000000000000000000000000602082015250565b60006125cb602183611c75565b91506125d68261256f565b604082019050919050565b600060208201905081810360008301526125fa816125be565b9050919050565b7f4552433732313a207472616e736665722066726f6d20696e636f72726563742060008201527f6f776e6572000000000000000000000000000000000000000000000000000000602082015250565b600061265d602583611c75565b915061266882612601565b604082019050919050565b6000602082019050818103600083015261268c81612650565b9050919050565b7f4552433732313a207472616e7366657220746f20746865207a65726f2061646460008201527f7265737300000000000000000000000000000000000000000000000000000000602082015250565b60006126ef602483611c75565b91506126fa82612693565b604082019050919050565b6000602082019050818103600083015261271e816126e2565b9050919050565b7f4e487b7100000000000000000000000000000000000000000000000000000000600052601160045260246000fd5b600061275f82611d25565b915061276a83611d25565b92508282101561277d5761277c612725565b5b828203905092915050565b600061279382611d25565b915061279e83611d25565b9250827fffffffffffffffffffffffffffffffffffffffffffffffffffffffffffffffff038211156127d3576127d2612725565b5b828201905092915050565b7f4552433732313a20617070726f766520746f2063616c6c657200000000000000600082015250565b6000612814601983611c75565b915061281f826127de565b602082019050919050565b6000602082019050818103600083015261284381612807565b9050919050565b7f4552433732313a207472616e7366657220746f206e6f6e20455243373231526560008201527f63656976657220696d706c656d656e7465720000000000000000000000000000602082015250565b60006128a6603283611c75565b91506128b18261284a565b604082019050919050565b600060208201905081810360008301526128d581612899565b9050919050565b600081905092915050565b60006128f282611c6a565b6128fc81856128dc565b935061290c818560208601611c86565b80840191505092915050565b600061292482856128e7565b915061293082846128e7565b91508190509392505050565b7f45524337323155524953746f726167653a2055524920736574206f66206e6f6e60008201527f6578697374656e7420746f6b656e000000000000000000000000000000000000602082015250565b6000612998602e83611c75565b91506129a38261293c565b604082019050919050565b600060208201905081810360008301526129c78161298b565b9050919050565b600081519050919050565b600082825260208201905092915050565b60006129f5826129ce565b6129ff81856129d9565b9350612a0f818560208601611c86565b612a1881611cb9565b840191505092915050565b6000608082019050612a386000830187611dba565b612a456020830186611dba565b612a526040830185611ed0565b8181036060830152612a6481846129ea565b905095945050505050565b600081519050612a7e81611bdb565b92915050565b600060208284031215612a9a57612a99611ba5565b5b6000612aa884828501612a6f565b91505092915050565b6000612abc82611d25565b91507fffffffffffffffffffffffffffffffffffffffffffffffffffffffffffffffff8203612aee57612aed612725565b5b600182019050919050565b7f4e487b7100000000000000000000000000000000000000000000000000000000600052601260045260246000fd5b6000612b3382611d25565b9150612b3e83611d25565b925082612b4e57612b4d612af9565b5b828204905092915050565b6000612b6482611d25565b9150612b6f83611d25565b925082612b7f57612b7e612af9565b5b828206905092915050565b7f4e487b7100000000000000000000000000000000000000000000000000000000600052603260045260246000fd5b7f4552433732313a206d696e7420746f20746865207a65726f2061646472657373600082015250565b6000612bef602083611c75565b9150612bfa82612bb9565b602082019050919050565b60006020820190508181036000830152612c1e81612be2565b9050919050565b7f4552433732313a20746f6b656e20616c7265616479206d696e74656400000000600082015250565b6000612c5b601c83611c75565b9150612c6682612c25565b602082019050919050565b60006020820190508181036000830152612c8a81612c4e565b905091905056fea2646970667358221220d5447905261855c36bd860d86fa4bcb7f44be4bd6bf7227e6242d7e4a4e1170e64736f6c634300080e0033",
  "immutableReferences": {},
  "source": "//SPDX-License-Identifier: MIT\npragma solidity 0.8.14;\n\nimport \"@openzeppelin/contracts/token/ERC721/ERC721.sol\";\nimport \"@openzeppelin/contracts/token/ERC721/extensions/ERC721URIStorage.sol\";\nimport \"@openzeppelin/contracts/utils/Counters.sol\";\nimport \"./Campaign.sol\";\n\ncontract NftReward is ERC721, ERC721URIStorage {\n    using Counters for Counters.Counter;\n    Counters.Counter private _tokenIdCounter;\n\n    mapping(address => bool) public isUserHaveNft;\n    uint constant public NFT_PRICE = 1 ether / 1000;\n    string public baseUrl;\n\n    constructor(string memory _tokenName, string memory _tokenSymbol, string memory _baseUrl) ERC721(_tokenName, _tokenSymbol) {\n        baseUrl = _baseUrl;\n    }\n\n    function _baseURI() internal view override returns (string memory) {\n        return baseUrl;\n    }\n\n    function safeMint(address to, string memory uri) public {\n        require(!isUserHaveNft[to], \"You can't own more than one token\");\n\n        uint256 tokenId = _tokenIdCounter.current();\n        _tokenIdCounter.increment();\n        _safeMint(to, tokenId);\n        _setTokenURI(tokenId, uri);\n\n        isUserHaveNft[to] = true;\n    }\n\n    function _burn(uint256 tokenId) internal override(ERC721, ERC721URIStorage) {\n        super._burn(tokenId);\n    }\n\n    function tokenURI(uint256 tokenId)\n    public\n    view\n    override(ERC721, ERC721URIStorage)\n    returns (string memory)\n    {\n        return super.tokenURI(tokenId);\n    }\n\n    function getIsUserHaveNft(address userAddress) view external returns (bool) {\n        return isUserHaveNft[userAddress];\n    }\n}\n",
  "sourcePath": "/home/yurchenko-a/Desktop/skillup/web3/CrowdfundingPlatform/truffle/contracts/NftReward.sol",
  "compiler": {
    "name": "solc",
    "version": "0.8.14+commit.80d49f37.Emscripten.clang"
  },
  "schemaVersion": "3.4.10",
  "updatedAt": "2022-11-09T12:27:03.118Z",
  "devdoc": {
    "kind": "dev",
    "methods": {
      "approve(address,uint256)": {
        "details": "See {IERC721-approve}."
      },
      "balanceOf(address)": {
        "details": "See {IERC721-balanceOf}."
      },
      "getApproved(uint256)": {
        "details": "See {IERC721-getApproved}."
      },
      "isApprovedForAll(address,address)": {
        "details": "See {IERC721-isApprovedForAll}."
      },
      "name()": {
        "details": "See {IERC721Metadata-name}."
      },
      "ownerOf(uint256)": {
        "details": "See {IERC721-ownerOf}."
      },
      "safeTransferFrom(address,address,uint256)": {
        "details": "See {IERC721-safeTransferFrom}."
      },
      "safeTransferFrom(address,address,uint256,bytes)": {
        "details": "See {IERC721-safeTransferFrom}."
      },
      "setApprovalForAll(address,bool)": {
        "details": "See {IERC721-setApprovalForAll}."
      },
      "supportsInterface(bytes4)": {
        "details": "See {IERC165-supportsInterface}."
      },
      "symbol()": {
        "details": "See {IERC721Metadata-symbol}."
      },
      "transferFrom(address,address,uint256)": {
        "details": "See {IERC721-transferFrom}."
      }
    },
    "version": 1
  },
  "userdoc": {
    "kind": "user",
    "methods": {},
    "version": 1
  }
}